:100000000C9435000C945D000C945D000C945D0024
:100010000C945D000C945D000C945D000C945D00EC
:100020000C945D000C945D000C945D000C945D00DC
:100030000C945D000C945D000C945D000C945D00CC
:100040000C94EF010C945D000C94B5010C947A01B2
:100050000C945D000C945D000C945D000C945D00AC
:100060000C945D000C945D00390211241FBECFEF8B
:10007000D8E0DEBFCDBF11E0A0E0B1E0E6E6F7E0FA
:1000800002C005900D92A035B107D9F722E0A0E596
:10009000B1E001C01D92A031B207E1F710E0C5E365
:1000A000D0E004C02197FE010E94AB03C433D10706
:1000B000C9F70E9474020C94A8030C9400000895E0
:1000C0000F931F93CF93DF93FC01A685B7858D0116
:1000D000005C1F4FE8018881998101968F739927F1
:1000E000AD014E5B5F4FEA0128813981281739073E
:1000F000D1F3E80128813981A20FB31F6C93A68543
:10010000B785A05CBF4F11969C938E93A689B78943
:100110002C9181E090E0078C02C0880F991F0A940F
:10012000E2F7822B8C9381E081A30488F589E02D8E
:1001300080818064808381E090E0DF91CF911F9186
:100140000F910895CF93DF936DE08EEE91E00E94C2
:100150006000EC016AE08EEE91E00E9460008C0F7E
:100160009D1FDF91CF910895FC0181A1882329F083
:10017000A489B5898C9186FFFBCF11A20895FC015B
:10018000A485B585FD01E05CFF4F20813181329669
:10019000808191812817390779F080819181A80F9A
:1001A000B91F8C91208131812F5F3F4F2F733327EF
:1001B0003183208390E008958FEF9FEF0895DC0155
:1001C0001C96ED91FC911D97DF01A05CBF4F2D9116
:1001D0003C91119712968D919C9111972817390790
:1001E00039F08D919C91E80FF91F808190E008957E
:1001F0008FEF9FEF0895FC0124853585F901E05CC0
:10020000FF4F80819181329620813181821B930B37
:100210008F73992708958EEE91E00C94FB00CF9296
:10022000DF92EF92FF920F931F93CF93DF936C01B6
:10023000EB017B01E40EF51E00E010E0CE15DF05BA
:1002400061F06991D601ED91FC910190F081E02D72
:10025000C6010995080F191FF1CFC801DF91CF9191
:100260001F910F91FF90EF90DF90CF9008953FB7CF
:10027000F8948091550190915601A0915701B09149
:10028000580126B5A89B05C02F3F19F00196A11D66
:10029000B11D3FBFBA2FA92F982F8827820F911D1C
:1002A000A11DB11DBC01CD0142E0660F771F881F63
:1002B000991F4A95D1F70895009769F0FC010190C4
:1002C0000020E9F73197AF01481B590BBC018EEEB6
:1002D00091E00C940F0180E090E00895CF93DF93BC
:1002E0000E945C01EC010E94A2008C0F9D1FDF9117
:1002F000CF9108951F920F920FB60F9211242F9352
:100300003F938F939F93EF93FF932091A60130919A
:10031000A7018091A8019091A9012817390731F40C
:100320008091C1008F7D8093C10014C0E091A8012D
:10033000F091A901EA59FE4F20818091A801909186
:10034000A90101968F7399279093A9018093A80121
:100350002093C600FF91EF919F918F913F912F9134
:100360000F900FBE0F901F9018951F920F920FB60F
:100370000F9211242F934F935F938F939F93EF933B
:10038000FF938091C00082FD1CC02091C600809127
:10039000EA019091EB014091EC015091ED01019641
:1003A0008F7399274817590771F0E091EA01F0918E
:1003B000EB01E655FE4F20839093EB018093EA0119
:1003C00002C08091C600FF91EF919F918F915F9144
:1003D0004F912F910F900FBE0F901F9018951F9265
:1003E0000F920FB60F9211242F933F938F939F93E9
:1003F000AF93BF938091510190915201A09153010D
:10040000B09154013091500123E0230F2D3720F497
:100410000196A11DB11D05C026E8230F0296A11D5E
:10042000B11D209350018093510190935201A093EC
:100430005301B09354018091550190915601A091C0
:100440005701B09158010196A11DB11D809355012E
:1004500090935601A0935701B0935801BF91AF916B
:100460009F918F913F912F910F900FBE0F901F90F2
:100470001895EEEEF1E01382128288EE93E0A0E090
:10048000B0E084839583A683B78384E091E0918371
:1004900080838AEA91E09587848786E691E0978752
:1004A000868785EC90E0918B808B84EC90E0938B39
:1004B000828B80EC90E0958B848B81EC90E0978B25
:1004C000868B82EC90E0918F808F86EC90E0938F0A
:1004D000828F84E0848F83E0858F87E0868F85E03C
:1004E000878F81E080A30895789484B5826084BD6D
:1004F00084B5816084BD85B5826085BD85B5816028
:1005000085BD80916E00816080936E0010928100A5
:100510008091810082608093810080918100816060
:100520008093810080918000816080938000809121
:10053000B10084608093B1008091B00081608093AD
:10054000B00080917A00846080937A0080917A0074
:10055000826080937A0080917A00816080937A0033
:1005600080917A00806880937A001092C100E091B7
:100570000202F091030281E090E09C0100900E02E3
:1005800002C0220F331F0A94E2F72083E091FE019C
:10059000F091FF011082E0910002F09101022FEC36
:1005A000208310920F02E0910402F0910502408135
:1005B0009C0100900A0202C0220F331F0A94E2F746
:1005C000242B2083E0910402F091050240819C01DC
:1005D00000900B0202C0220F331F0A94E2F7242B73
:1005E0002083E0910402F091050240819C0100907B
:1005F0000C0202C0220F331F0A94E2F7242B20833F
:10060000E0910402F0910502208100900D0202C0E9
:10061000880F991F0A94E2F780958223808380E1F6
:1006200091E00E945C010E943701EB0190EDC92E20
:1006300097E0D92EE12CF12C0E9437016C1B7D0B29
:10064000683E7340C8F3E1E0CE1AD108E108F10832
:10065000C851DC4FC114D104E104F10469F783E20D
:1006600091E00E945C0109E511E08AE0F82E8EEE2F
:1006700091E00E94FB00892B09F44BC08EEE91E0C3
:100680000E94BF00C82F809365018EEE91E00E940A
:10069000B4006C2F8EEE91E00E9460000E94A200D8
:1006A0008EEE91E00E94FB00892B09F38091650199
:1006B0008133A1F488E391E00E946E01C09163014F
:1006C000D09164018EEE91E00E94BF00FE01E75AD6
:1006D000FE4F808381528E35F8F02CC0823301F7B3
:1006E0008AE391E00E946E01C0916301D0916401A0
:1006F0008EEE91E00E94BF00FE01E75AFE4F80831C
:1007000081528E3578F46AE28EEE91E00E946000AC
:1007100003C00E940B01ABCF2196D0936401C0931C
:100720006301BECF86E391E00E945C018CE391E01F
:100730000E945C0189E591E00E946E01F8018F2D15
:1007400011928A95E9F71092640110926301A8CF83
:10075000F8940C94B103EE0FFF1F0590F491E02D77
:060760000994F894FFCF9C
:100766000000000060000F01FB00BF00DF00B400C6
:10077600312E20534841444F570A322E20484944CF
:10078600450A00456E746572207468652070617351
:1007960073776F72643A0A0031003200596F7572CE
:1007A6002070617373776F7264206973203A20003A
:00000001FF
